{
  "_format": "hh-sol-artifact-1",
  "contractName": "ContractERC20",
  "sourceName": "contracts/contract.sol",
  "abi": [
    {
      "inputs": [
        {
          "internalType": "string",
          "name": "name_",
          "type": "string"
        },
        {
          "internalType": "string",
          "name": "symbol_",
          "type": "string"
        },
        {
          "internalType": "uint256",
          "name": "initialSupply_",
          "type": "uint256"
        },
        {
          "internalType": "address payable",
          "name": "contractAddress",
          "type": "address"
        }
      ],
      "stateMutability": "nonpayable",
      "type": "constructor"
    },
    {
      "anonymous": false,
      "inputs": [
        {
          "indexed": true,
          "internalType": "address",
          "name": "owner",
          "type": "address"
        },
        {
          "indexed": true,
          "internalType": "address",
          "name": "spender",
          "type": "address"
        },
        {
          "indexed": false,
          "internalType": "uint256",
          "name": "value",
          "type": "uint256"
        }
      ],
      "name": "Approval",
      "type": "event"
    },
    {
      "anonymous": false,
      "inputs": [
        {
          "indexed": true,
          "internalType": "address",
          "name": "previousOwner",
          "type": "address"
        },
        {
          "indexed": true,
          "internalType": "address",
          "name": "newOwner",
          "type": "address"
        }
      ],
      "name": "OwnershipTransferred",
      "type": "event"
    },
    {
      "anonymous": false,
      "inputs": [
        {
          "indexed": true,
          "internalType": "address",
          "name": "from",
          "type": "address"
        },
        {
          "indexed": true,
          "internalType": "address",
          "name": "to",
          "type": "address"
        },
        {
          "indexed": false,
          "internalType": "uint256",
          "name": "value",
          "type": "uint256"
        }
      ],
      "name": "Transfer",
      "type": "event"
    },
    {
      "inputs": [
        {
          "internalType": "address",
          "name": "owner",
          "type": "address"
        },
        {
          "internalType": "address",
          "name": "spender",
          "type": "address"
        }
      ],
      "name": "allowance",
      "outputs": [
        {
          "internalType": "uint256",
          "name": "",
          "type": "uint256"
        }
      ],
      "stateMutability": "view",
      "type": "function"
    },
    {
      "inputs": [
        {
          "internalType": "address",
          "name": "spender",
          "type": "address"
        },
        {
          "internalType": "uint256",
          "name": "amount",
          "type": "uint256"
        }
      ],
      "name": "approve",
      "outputs": [
        {
          "internalType": "bool",
          "name": "",
          "type": "bool"
        }
      ],
      "stateMutability": "nonpayable",
      "type": "function"
    },
    {
      "inputs": [
        {
          "internalType": "address",
          "name": "account",
          "type": "address"
        }
      ],
      "name": "balanceOf",
      "outputs": [
        {
          "internalType": "uint256",
          "name": "",
          "type": "uint256"
        }
      ],
      "stateMutability": "view",
      "type": "function"
    },
    {
      "inputs": [],
      "name": "decimals",
      "outputs": [
        {
          "internalType": "uint8",
          "name": "",
          "type": "uint8"
        }
      ],
      "stateMutability": "view",
      "type": "function"
    },
    {
      "inputs": [
        {
          "internalType": "address",
          "name": "spender",
          "type": "address"
        },
        {
          "internalType": "uint256",
          "name": "subtractedValue",
          "type": "uint256"
        }
      ],
      "name": "decreaseAllowance",
      "outputs": [
        {
          "internalType": "bool",
          "name": "",
          "type": "bool"
        }
      ],
      "stateMutability": "nonpayable",
      "type": "function"
    },
    {
      "inputs": [
        {
          "internalType": "address",
          "name": "spender",
          "type": "address"
        },
        {
          "internalType": "uint256",
          "name": "addedValue",
          "type": "uint256"
        }
      ],
      "name": "increaseAllowance",
      "outputs": [
        {
          "internalType": "bool",
          "name": "",
          "type": "bool"
        }
      ],
      "stateMutability": "nonpayable",
      "type": "function"
    },
    {
      "inputs": [],
      "name": "initialSupply",
      "outputs": [
        {
          "internalType": "uint256",
          "name": "",
          "type": "uint256"
        }
      ],
      "stateMutability": "view",
      "type": "function"
    },
    {
      "inputs": [],
      "name": "name",
      "outputs": [
        {
          "internalType": "string",
          "name": "",
          "type": "string"
        }
      ],
      "stateMutability": "view",
      "type": "function"
    },
    {
      "inputs": [],
      "name": "owner",
      "outputs": [
        {
          "internalType": "address",
          "name": "",
          "type": "address"
        }
      ],
      "stateMutability": "view",
      "type": "function"
    },
    {
      "inputs": [],
      "name": "renounceOwnership",
      "outputs": [],
      "stateMutability": "nonpayable",
      "type": "function"
    },
    {
      "inputs": [
        {
          "internalType": "uint256",
          "name": "amount",
          "type": "uint256"
        }
      ],
      "name": "sendBalance_founders",
      "outputs": [],
      "stateMutability": "nonpayable",
      "type": "function"
    },
    {
      "inputs": [],
      "name": "symbol",
      "outputs": [
        {
          "internalType": "string",
          "name": "",
          "type": "string"
        }
      ],
      "stateMutability": "view",
      "type": "function"
    },
    {
      "inputs": [],
      "name": "totalSupply",
      "outputs": [
        {
          "internalType": "uint256",
          "name": "",
          "type": "uint256"
        }
      ],
      "stateMutability": "view",
      "type": "function"
    },
    {
      "inputs": [
        {
          "internalType": "address",
          "name": "to",
          "type": "address"
        },
        {
          "internalType": "uint256",
          "name": "amount",
          "type": "uint256"
        }
      ],
      "name": "transfer",
      "outputs": [
        {
          "internalType": "bool",
          "name": "",
          "type": "bool"
        }
      ],
      "stateMutability": "nonpayable",
      "type": "function"
    },
    {
      "inputs": [
        {
          "internalType": "address",
          "name": "from",
          "type": "address"
        },
        {
          "internalType": "address",
          "name": "to",
          "type": "address"
        },
        {
          "internalType": "uint256",
          "name": "amount",
          "type": "uint256"
        }
      ],
      "name": "transferFrom",
      "outputs": [
        {
          "internalType": "bool",
          "name": "",
          "type": "bool"
        }
      ],
      "stateMutability": "nonpayable",
      "type": "function"
    },
    {
      "inputs": [
        {
          "internalType": "address",
          "name": "newOwner",
          "type": "address"
        }
      ],
      "name": "transferOwnership",
      "outputs": [],
      "stateMutability": "nonpayable",
      "type": "function"
    },
    {
      "stateMutability": "payable",
      "type": "receive"
    }
  ],
  "bytecode": "0x60806040523480156200001157600080fd5b506040516200144138038062001441833981016040819052620000349162000401565b8351849084906200004d906003906020850190620001d0565b50805162000063906004906020840190620001d0565b505050620000806200007a620000d460201b60201c565b620000d8565b6006829055620000aa33620000986012600a620005ef565b620000a4908562000606565b6200012a565b600780546001600160a01b0319166001600160a01b039290921691909117905550620006d3915050565b3390565b600580546001600160a01b038381166001600160a01b0319831681179093556040519116919082907f8be0079c531659141344cd1fd0a4f28419497f9722a3daafe3b4186f6b6457e090600090a35050565b6001600160a01b0382166200015c5760405162461bcd60e51b8152600401620001539062000628565b60405180910390fd5b806002600082825462000170919062000664565b90915550506001600160a01b038216600081815260208190526040808220805485019055517fddf252ad1be2c89b69c2b068fc378daa952ba7f163c4a11628f55a4df523b3ef90620001c49085906200067f565b60405180910390a35050565b828054620001de90620006a2565b90600052602060002090601f0160209004810192826200020257600085556200024d565b82601f106200021d57805160ff19168380011785556200024d565b828001600101855582156200024d579182015b828111156200024d57825182559160200191906001019062000230565b506200025b9291506200025f565b5090565b5b808211156200025b576000815560010162000260565b634e487b7160e01b600052604160045260246000fd5b601f19601f83011681016001600160401b0381118282101715620002b457620002b462000276565b6040525050565b6000620002c760405190565b9050620002d582826200028c565b919050565b60006001600160401b03821115620002f657620002f662000276565b601f19601f83011660200192915050565b60005b83811015620003245781810151838201526020016200030a565b8381111562000334576000848401525b50505050565b6000620003516200034b84620002da565b620002bb565b9050828152602081018484840111156200036e576200036e600080fd5b6200037b84828562000307565b509392505050565b600082601f830112620003995762000399600080fd5b8151620003ab8482602086016200033a565b949350505050565b805b8114620003c157600080fd5b50565b8051620003d181620003b3565b92915050565b60006001600160a01b038216620003d1565b620003b581620003d7565b8051620003d181620003e9565b600080600080608085870312156200041c576200041c600080fd5b84516001600160401b03811115620004375762000437600080fd5b620004458782880162000383565b602087015190955090506001600160401b03811115620004685762000468600080fd5b620004768782880162000383565b93505060406200048987828801620003c4565b92505060606200049c87828801620003f4565b91505092959194509250565b634e487b7160e01b600052601160045260246000fd5b80825b60018511156200050457808604811115620004e057620004e0620004a8565b6001851615620004ef57908102905b8002620004fc8560011c90565b9450620004c1565b94509492505050565b6000826200051e57506001620005e8565b816200052d57506000620005e8565b8160018114620005465760028114620005515762000585565b6001915050620005e8565b60ff841115620005655762000565620004a8565b8360020a9150848211156200057e576200057e620004a8565b50620005e8565b5060208310610133831016604e8410600b8410161715620005bd575081810a83811115620005b757620005b7620004a8565b620005e8565b620005cc8484846001620004be565b92509050818404811115620005e557620005e5620004a8565b81025b9392505050565b60ff821691506000620005e860001984846200050d565b6000816000190483118215151615620006235762000623620004a8565b500290565b60208082528101620003d181601f81527f45524332303a206d696e7420746f20746865207a65726f206164647265737300602082015260400190565b600082198211156200067a576200067a620004a8565b500190565b81815260208101620003d1565b634e487b7160e01b600052602260045260246000fd5b600281046001821680620006b757607f821691505b60208210811415620006cd57620006cd6200068c565b50919050565b610d5e80620006e36000396000f3fe6080604052600436106100f75760003560e01c806370a082311161008a578063a457c2d711610059578063a457c2d714610292578063a9059cbb146102b2578063dd62ed3e146102d2578063f2fde38b146102f257600080fd5b806370a082311461020c578063715018a6146102425780638da5cb5b1461025757806395d89b411461027d57600080fd5b8063313ce567116100c6578063313ce56714610199578063378dc3dc146101b557806339509351146101ca578063635aea9b146101ea57600080fd5b806306fdde0314610103578063095ea7b31461012e57806318160ddd1461015b57806323b872dd1461017957600080fd5b366100fe57005b600080fd5b34801561010f57600080fd5b50610118610312565b604051610125919061080e565b60405180910390f35b34801561013a57600080fd5b5061014e610149366004610867565b6103a4565b60405161012591906108ae565b34801561016757600080fd5b506002545b60405161012591906108c2565b34801561018557600080fd5b5061014e6101943660046108d0565b6103be565b3480156101a557600080fd5b5060126040516101259190610929565b3480156101c157600080fd5b5060065461016c565b3480156101d657600080fd5b5061014e6101e5366004610867565b6103e2565b3480156101f657600080fd5b5061020a610205366004610937565b610404565b005b34801561021857600080fd5b5061016c610227366004610960565b6001600160a01b031660009081526020819052604090205490565b34801561024e57600080fd5b5061020a610473565b34801561026357600080fd5b506005546001600160a01b0316604051610125919061098a565b34801561028957600080fd5b50610118610487565b34801561029e57600080fd5b5061014e6102ad366004610867565b610496565b3480156102be57600080fd5b5061014e6102cd366004610867565b6104d3565b3480156102de57600080fd5b5061016c6102ed366004610998565b6104e1565b3480156102fe57600080fd5b5061020a61030d366004610960565b61050c565b606060038054610321906109e1565b80601f016020809104026020016040519081016040528092919081815260200182805461034d906109e1565b801561039a5780601f1061036f5761010080835404028352916020019161039a565b820191906000526020600020905b81548152906001019060200180831161037d57829003601f168201915b5050505050905090565b6000336103b2818585610546565b60019150505b92915050565b6000336103cc8582856105fa565b6103d7858585610644565b506001949350505050565b6000336103b28185856103f583836104e1565b6103ff9190610a24565b610546565b61040c610734565b478111156104355760405162461bcd60e51b815260040161042c90610a68565b60405180910390fd5b6007546040516001600160a01b039091169082156108fc029083906000818181858888f1935050505015801561046f573d6000803e3d6000fd5b5050565b61047b610734565b610485600061075e565b565b606060048054610321906109e1565b600033816104a482866104e1565b9050838110156104c65760405162461bcd60e51b815260040161042c90610aba565b6103d78286868403610546565b6000336103b2818585610644565b6001600160a01b03918216600090815260016020908152604080832093909416825291909152205490565b610514610734565b6001600160a01b03811661053a5760405162461bcd60e51b815260040161042c90610b0b565b6105438161075e565b50565b6001600160a01b03831661056c5760405162461bcd60e51b815260040161042c90610b5a565b6001600160a01b0382166105925760405162461bcd60e51b815260040161042c90610ba7565b6001600160a01b0380841660008181526001602090815260408083209487168084529490915290819020849055517f8c5be1e5ebec7d5bd14f71427d1e84f3dd0314c0f7b2291e5b200ac8c7c3b925906105ed9085906108c2565b60405180910390a3505050565b600061060684846104e1565b9050600019811461063e57818110156106315760405162461bcd60e51b815260040161042c90610be9565b61063e8484848403610546565b50505050565b6001600160a01b03831661066a5760405162461bcd60e51b815260040161042c90610c39565b6001600160a01b0382166106905760405162461bcd60e51b815260040161042c90610c87565b6001600160a01b038316600090815260208190526040902054818110156106c95760405162461bcd60e51b815260040161042c90610cd8565b6001600160a01b0380851660008181526020819052604080822086860390559286168082529083902080548601905591517fddf252ad1be2c89b69c2b068fc378daa952ba7f163c4a11628f55a4df523b3ef906107279086906108c2565b60405180910390a361063e565b6005546001600160a01b031633146104855760405162461bcd60e51b815260040161042c90610d18565b600580546001600160a01b038381166001600160a01b0319831681179093556040519116919082907f8be0079c531659141344cd1fd0a4f28419497f9722a3daafe3b4186f6b6457e090600090a35050565b60005b838110156107cb5781810151838201526020016107b3565b8381111561063e5750506000910152565b60006107e6825190565b8084526020840193506107fd8185602086016107b0565b601f01601f19169290920192915050565b6020808252810161081f81846107dc565b9392505050565b60006001600160a01b0382166103b8565b61084081610826565b811461054357600080fd5b80356103b881610837565b80610840565b80356103b881610856565b6000806040838503121561087d5761087d600080fd5b6000610889858561084b565b925050602061089a8582860161085c565b9150509250929050565b8015155b82525050565b602081016103b882846108a4565b806108a8565b602081016103b882846108bc565b6000806000606084860312156108e8576108e8600080fd5b60006108f4868661084b565b93505060206109058682870161084b565b92505060406109168682870161085c565b9150509250925092565b60ff81166108a8565b602081016103b88284610920565b60006020828403121561094c5761094c600080fd5b6000610958848461085c565b949350505050565b60006020828403121561097557610975600080fd5b6000610958848461084b565b6108a881610826565b602081016103b88284610981565b600080604083850312156109ae576109ae600080fd5b60006109ba858561084b565b925050602061089a8582860161084b565b634e487b7160e01b600052602260045260246000fd5b6002810460018216806109f557607f821691505b60208210811415610a0857610a086109cb565b50919050565b634e487b7160e01b600052601160045260246000fd5b60008219821115610a3757610a37610a0e565b500190565b60158152602081017424b739bab33334b1b4b2b73a103130b630b731b29760591b815290505b60200190565b602080825281016103b881610a3c565b60258152602081017f45524332303a2064656372656173656420616c6c6f77616e63652062656c6f77815264207a65726f60d81b602082015290505b60400190565b602080825281016103b881610a78565b60268152602081017f4f776e61626c653a206e6577206f776e657220697320746865207a65726f206181526564647265737360d01b60208201529050610ab4565b602080825281016103b881610aca565b60248152602081017f45524332303a20617070726f76652066726f6d20746865207a65726f206164648152637265737360e01b60208201529050610ab4565b602080825281016103b881610b1b565b60228152602081017f45524332303a20617070726f766520746f20746865207a65726f206164647265815261737360f01b60208201529050610ab4565b602080825281016103b881610b6a565b601d8152602081017f45524332303a20696e73756666696369656e7420616c6c6f77616e636500000081529050610a62565b602080825281016103b881610bb7565b60258152602081017f45524332303a207472616e736665722066726f6d20746865207a65726f206164815264647265737360d81b60208201529050610ab4565b602080825281016103b881610bf9565b60238152602081017f45524332303a207472616e7366657220746f20746865207a65726f206164647281526265737360e81b60208201529050610ab4565b602080825281016103b881610c49565b60268152602081017f45524332303a207472616e7366657220616d6f756e7420657863656564732062815265616c616e636560d01b60208201529050610ab4565b602080825281016103b881610c97565b60208082527f4f776e61626c653a2063616c6c6572206973206e6f7420746865206f776e65729101908152610a62565b602080825281016103b881610ce856fea2646970667358221220f06cac9e0d085779b8474b9f8a879a7e4b9a3b1b1f485d53b511370b56ad0f8964736f6c63430008090033",
  "linkReferences": {},
  "deployedLinkReferences": {}
}